:020000040000FA
:060000008AEF00F0000091
:0800080000016351646F6551B2
:10001000686FE950696FEA506A6FF6506B6FF7507E
:100020006C6FF8506D6FF5506E6F46EF06F0120171
:10003000000202000008D8040A00010001020001C9
:10004000090243000201008032090400000102029B
:100050000100052400100104240202052406000109
:1000600005240100010705820308000209040100BC
:10007000020A0000000705030208000007058302CA
:10008000080000000403090436034D006900630002
:1000900072006F0063006800690070002000540067
:1000A0006500630068006E006F006C006F00670001
:1000B00079002C00200049006E0063002E001E0312
:1000C0004A0041004C004C0049004200200053000F
:1000D00065007200690061006C002E0067BF84EF4C
:1000E00000F067BD7AEF00F06651EA6E6551E96E87
:1000F000EF5012006551F66E6651F76E67513F0B77
:10010000F86E0800F55012001200FB6E6651FA6E90
:100110006551F96E938E948A8B9E949E8B9C949CD1
:1001200038EF01F0A46F9F51E16EA051E26EA4512F
:10013000A66FA56BACEF00F0A151A525656F000E71
:100140005E6EA2515E20666FA3515E20676F6EECFB
:1001500000F0E66E0001A52BA551A65DD8A49CEF8A
:1001600000F01200020104BF12000001AE51AB5DAD
:10017000D8B4C0EF00F0D8B0C0EF00F0AB51AE6F14
:10018000D880AE51AC559D6F9D51AD5DD8B4CEEFCA
:1001900000F0D8B0CEEF00F0AD519D6F780EAC25D9
:1001A0000201066F000E5E6E020E5E20076F0001F8
:1001B0009D510201056F04ADE2EF00F0880E046F5F
:1001C000E4EF00F0C80E046F00019D51AC27AC5164
:1001D000AE5D1200080EAD6FAC6BAE6BAB6B020187
:1001E000049DB2EF00F0AA6FAA510201786F080EC9
:1001F0000001AD6FAC6B010EAE6F010EAB6F020173
:10020000049DB2EF00F0840E020100131200080EEC
:100210000201016F200E026F020E036F030E000138
:10022000B05DD8A41AEF01F08C0E9C6F0201046B34
:100230001CEF01F0C80E9C6F00019C510201006F81
:1002400012008B6FD8908B358E6FD8908E37D890E8
:100250008E378E298D6F02EE00F08D51E9268C517C
:10026000EF6E02EE00F08E51E926800EEF6E120066
:10027000B26BEF91766B776B786B796B100E7A6F50
:100280003FEF05F00201F95100019E6F210E9E5DC6
:10029000D8A44DEF01F0050EB06F120002011CBF93
:1002A00056EF01F00001899158EF01F000018981BA
:1002B00089B112007651775DD8A464EF01F0EFA107
:1002C0001200846B76EF01F07651775DD8B472EF4F
:1002D00001F0D8B072EF01F0D88076517755846F75
:1002E00076EF01F0D880200E7755846F080E845D7C
:1002F000D8B480EF01F0D8A080EF01F0080E846F31
:100300008451876F866B95EF01F077518625856F55
:1003100000EEB3F08551E926EF50606F02EE58F021
:100320008651E9266051EF6E862B8651875DD8A4F1
:1003300085EF01F0580E02011E6F020E1F6F0001C3
:10034000845102011D6F1CADAAEF01F0880E1C6FD5
:10035000ACEF01F0C80E1C6F000177518425886F47
:100360001F0E885DD8B4B9EF01F0D8A0B9EF01F045
:10037000886B8851776F080E845DEF91D8B4EF8158
:100380001200826F7629836F200E835DD8A4CAEF96
:1003900001F0836B00EEB3F07651E9268251EF6EE7
:1003A0008351766F12004EEC01F0080E00017A5D69
:1003B000D8B4DEEF01F0D8A0E8EF01F0020118BFD9
:1003C000E8EF01F0080E00018C6F030E21EF01F041
:1003D000120000016F6BC20E706F010E716F726BB5
:1003E000736B080E756F746B12000201F9510001F6
:1003F000A76F060EA75DD8A49BEF02F00201FB5188
:100400000001A86F0201FA510001A96FAE6B010E45
:10041000A85DD8A41EEF02F0120EAE6F780E9F6F8B
:10042000020EA06F2E0EA16F000EA26F000E4009EB
:10043000A36FAE5192EC00F07EEF02F0020EA85DC9
:10044000D8A435EF02F0430EAE6F780E9F6F020E08
:10045000A06F400EA16F000EA26F000E4009A36FA7
:10046000AE5192EC00F07EEF02F0030EA85DD8A42E
:100470007CEF02F0A951D8A44EEF02F0040EAE6F4B
:10048000780E9F6F020EA06F840EA16F000EA26FF8
:10049000000E4009A36FAE5192EC00F0010E000176
:1004A000A95DD8A464EF02F0360EAE6F780E9F6F90
:1004B000020EA06F880EA16F000EA26F000E400901
:1004C000A36FAE5192EC00F0020E0001A95DD8A41A
:1004D0007EEF02F01E0EAE6F780E9F6F020EA06FC1
:1004E000BE0EA16F000EA26F000E4009A36FAE51A9
:1004F00092EC00F07EEF02F0220EA85D0001AE51FA
:10050000D8B499EF02F0080EAD6F0201FF51D8A4E4
:100510008FEF02F0FE510001AB6F92EF02F0FF0E81
:100520000001AB6F030EB06FAC6B0201049DB2EF24
:1005300000F003EF01F0050EA75DD8A4ACEF02F0C8
:100540000201FA510001B16F010EAF6FEAEC00F049
:10055000060E0001B06F1200090EA75DD8A4E6EFE9
:1005600002F0060EB06FEAEC00F00F0154895485DA
:1005700054835487400E02010C6F080E096F300E31
:100580000A6F020E0B6F800E086F0F01558955859B
:1005900055835587400E0201146F080E116F400EEF
:1005A000126F020E136F800E106F0F015689568561
:1005B00056835687400E02011C6F080E196F500EAD
:1005C0001A6F020E1B6F800E186F12000A0EA75DC5
:1005D000D8A4F0EF02F0030EB06F010EF3EF00F0BD
:1005E000A751D8A4F7EF02F0000EF3EF00F01200CD
:1005F000D89063308F6FD8908F33D8908F3363A4A7
:100600000EEF03F0D890020104310001916FD890F1
:1006100091330F0E9115906F18EF03F0D8900201EF
:1006200000310001916FD89091330F0E9115906FAA
:100630008F51D8A40FEF04F00D0E905DD8A48EEF6B
:1006400003F0926B02EE20F09251E926EF50606FBA
:1006500002EEF8F09251E9266051EF6E922B080EEF
:10066000925DD8A422EF03F0649807EC01F0300EFD
:100670000201F8150001916F9151D8A442EF03F0E7
:10068000F5EF01F0200E915DD8A488EF03F0020190
:10069000F9510001936F230E935DD8A454EF03F03A
:1006A000060EB06FEAEF00F0200E935DD8A45CEF69
:1006B00003F0020EB06F1200210E935DD8A47AEF02
:1006C00003F0FF0EAB6F070EAE6F780E9F6F020E3A
:1006D000A06F6F0EA16FA26BA36BAE5192EC00F0F6
:1006E000080E0001AD6F030EB06FAC6B0201049DEC
:1006F000B2EF00F0220E935DD8A487EF03F0060E50
:10070000B06FEAEC00F00201FA510001B26F120082
:10071000400E915DD8A487EF04F01200090E905DA1
:10072000D8A4B5EF03F0030EB05DD8A49AEF03F0A0
:10073000B2EF00F0060EB05DD8A4ABEF03F0B06BE3
:10074000010EAF5DD8A487EF04F0B1510F015C6FCB
:100750000001AF6B1200050EB05DD8B41200040E9C
:10076000B05DD8B442EF01F01200020E905DD8A443
:10077000CFEF03F0030EB05DD8A4C1EF03F0B2EFEA
:1007800000F0040EB05DD8A4C8EF03F042EF01F012
:10079000060EB05DD8A487EF04F0B06B1200010E16
:1007A000905DD8A487EF04F0050EB05DD8A4DCEF0F
:1007B00003F0B06B07EF01F0020EB05DD8A403EFB9
:1007C00004F00201F9510001926F200E925DD8A44D
:1007D00001EF04F0936B02EE20F09351E926EF5005
:1007E000606F00EE6FF09351E9266051EF6E932B2E
:1007F000070E935DD8A4EBEF03F0060EB06FEAECA2
:1008000000F007EF01F0030EB05DD8A40DEF04F087
:1008100007EC01F00001B06B120007EF01F063A4D8
:1008200036EF04F0D8908F35926FD8909237D890E9
:100830009237040E9227020E9225916F02EE00F07D
:100840009151E926EF50936F030E9225916F02EEBE
:1008500000F09151E926EF50946F9229916F030EA9
:100860008F5DD8A487EF04F04EEF01F0D8908F355C
:10087000926FD8909237D8909237020E9225916F4E
:1008800002EE00F09151E926EF50936F030E92258E
:10089000916F02EE00F09151E926EF50946F92298A
:1008A000916F02EE00F09151E926EF50956F935150
:1008B000966F9451976F030E8F5DD8A487EF04F065
:1008C0009651E16E9751E26E9551996F9A6B82EF56
:1008D00004F07829986F100E985DD8A471EF04F099
:1008E000986B9851795DD8B481EF04F0E6509B6F16
:1008F00000EED3F07851E9269B51EF6E9851786F56
:100900007A079A2B9A51995DD8A469EF04F01200E6
:10091000A1A4D6EF04F0A19400018A6B62A694EF23
:1009200004F0F8EC02F0629600018A2B040E8A5D56
:10093000D8A48EEF04F062A0C8EF04F00F015F6B43
:10094000626A0001B16B0F01546B556B566B576BAC
:10095000586B596B5A6B160E536F62A6B3EF04F0C7
:100960006296ADEF04F00001B06BAF6B6498080EB7
:100970000201056F280E066F020E076F046B080E4A
:10098000016F200E026F020E036F8C0E006F6290DB
:1009900062BA629A62B8629862ACD2EF04F0D3ECA9
:1009A00001F0629C62A2D6EF04F06292120088EC21
:1009B00004F04EEF01F0646A140E616E6B0E606E0F
:1009C000A094E9EC01F0626A646A648612007F6FA9
:1009D000B251806F8051D8B412007629816F200EF9
:1009E000815DD8A4F5EF04F0816B00018151775D42
:1009F000D8A4FFEF04F0D7EC04F0F5EF04F07F513A
:100A0000C1EF01F0000160517E6F7E51E7EF04F00D
:100A1000F451F96FF551FA6FF951FC6FFA51FD6F0E
:100A2000FB6B23EF05F0F651FB25E96EF751EA6EFB
:100A3000EF50606FF151656FF251666FF35185ECC5
:100A400000F00001FB2BFB51FC5D606FFD5160115C
:100A5000D8A413EF05F01200CD6AB1969E949D9430
:100A6000040EBD6E1200110ECA6EFA0ECB6E9E926F
:100A70009D921200440ED56EF294F29A1200EF93FA
:100A8000E36BAA0E0101006FAA0E016FAA0E026F9E
:100A9000550E6B6F550E6C6FF29E7E6A7F6AC26A4E
:100AA000C16AC06A6D6A6B6A6C6A2CEC05F033EC43
:100AB00005F03AEC05F0DBEC04F0F28CF28E00016C
:100AC000E36B8B9ED7EC04F00001B251E96FE95162
:100AD000D8A46EEF05F0EF9373EF05F08B8EEFB3B4
:100AE00073EF05F0EF83E351D8A486EF05F09D94F2
:100AF000CD90CA94D59E9E94CC6A9E92440ED66E9A
:100B0000F294D58E010EE36F61EF05F0010EE35D07
:100B1000D8A4ACEF05F082AA61EF05F0EF9DF2B426
:100B2000EF8DEFADA7EF05F0040EBD6ECD809E9466
:100B30009D84CA84440ED66EF294E46BE56B800EFD
:100B4000E66FE76BE86B020EE36F61EF05F0440EB2
:100B5000D66EF29461EF05F0020EE35DD8B4B6EF05
:100B600005F0030EE35DD8A4D2EF05F082AABEEF34
:100B700005F0440ED66EF294C0EF05F0CC6A9E925A
:100B8000F0939EB2F083F0A3C8EF05F0040EE36F7C
:100B9000F095F2B4F085F0A561EF05F0040EE36F77
:100BA00061EF05F0040EE35DD8A40BEF06F09D9411
:100BB000CD90CA94D59E5A0EE45DD8B4E3EF05F00B
:100BC000D8A007EF06F0070EE715E96FEA6BE951C9
:100BD000EA11D8A408EF06F0050EE36F100E01012C
:100BE000515DD8B408EF06F0D8B008EF06F0D89001
:100BF00051350001E96F01EE6DF0E951E92601017F
:100C00004F51EF6EE92A5051EF6E08EF06F0E36B9B
:100C10008B8C61EF05F0050EE35DD8A443EF06F081
:100C20008B9CE36BEFA344EF06F001015D6B5E6B01
:100C300085515F6F8651606F8B51616F8C51626F10
:100C40008751636F8851646F7D51656F7E51666F08
:100C50008351676F8451686F7F51696F80516A6FEC
:100C6000040E0001F16F0A0EF26F000EF36F6D0EAD
:100C7000F46FF56B000EF66F010EF76FF86B08EC72
:100C800005F061EF05F0E36B61EF05F09EA49BEFCB
:100C900006F0020EE35DD8A455EF06F0030EE36FF5
:100CA0009E94050EBD6E9BEF06F0050EBD5CD8A4AC
:100CB00063EF06F0BE50EB6FBF50EC6F9E94040ED6
:100CC000BD6E9BEF06F0BE50ED6FBF50EE6F9E9471
:100CD000050EBD6EE72BD8B4E82B5A0EE45DD8B4F0
:100CE0009BEF06F0D8B09BEF06F0D880ED51EB55A6
:100CF0007C6FEE51EC557D6F010E7D5DD8A483EFC6
:100D000006F0680E7C5DD8B48BEF06F0D8A08BEFB0
:100D100006F0E651E513D890E633E651D8A49BEFF0
:100D200006F001EE03F0E451E926E551EF6E800E86
:100D3000E66FE56BE42B6B51F66E6C51F76E6D51FF
:100D4000F86E6E51F56E6951E96E6A51EA6E68513E
:080D5000656F6451636F11002F
:020000040030CA
:0E0000000032211E0088C90003C003E0034047
:00000001FF
