:020000040000FA
:060000008AEF00F0000091
:0800080000016351646F6551B2
:10001000686FE950696FEA506A6FF6506B6FF7507E
:100020006C6FF8506D6FF5506E6F53EF06F0120164
:10003000000202000008D8040A00010001020001C9
:10004000090243000201008032090400000102029B
:100050000100052400100104240202052406000109
:1000600005240100010705820308000209040100BC
:10007000020A0000000705030208000007058302CA
:10008000080000000403090436034D006900630002
:1000900072006F0063006800690070002000540067
:1000A0006500630068006E006F006C006F00670001
:1000B00079002C00200049006E0063002E001E0312
:1000C0004A0041004C004C0049004200200053000F
:1000D00065007200690061006C002E0067BF84EF4C
:1000E00000F067BD7AEF00F06651EA6E6551E96E87
:1000F000EF5012006551F66E6651F76E67513F0B77
:10010000F86E0800F55012001200FB6E6651FA6E90
:100110006551F96E32EF01F0A36F9E51E16E9F5170
:10012000E26EA351A56FA46BA6EF00F0A051A42529
:10013000656F000E5E6EA1515E20666FA2515E205B
:10014000676F6EEC00F0E66E0001A42BA451A55D74
:10015000D8A496EF00F01200020104BF12000001C3
:10016000AD51AA5DD8B4BAEF00F0D8B0BAEF00F044
:10017000AA51AD6FD880AD51AB559C6F9C51AC5D11
:10018000D8B4C8EF00F0D8B0C8EF00F0AC519C6F05
:10019000780EAB250201066F000E5E6E020E5E2029
:1001A000076F00019C510201056F04ADDCEF00F008
:1001B000880E046FDEEF00F0C80E046F00019C5142
:1001C000AB27AB51AD5D1200080EAC6FAB6BAD6BE6
:1001D000AA6B0201049DACEF00F0A96FA9510201C6
:1001E000786F080E0001AC6FAB6B010EAD6F010EA6
:1001F000AA6F0201049DACEF00F0840E020100130F
:100200001200080E0201016F200E026F020E036F32
:10021000030E0001AF5DD8A414EF01F08C0E9B6FAC
:100220000201046B16EF01F0C80E9B6F00019B5199
:100230000201006F12008A6FD8908A358D6FD890B6
:100240008D37D8908D378D298C6F02EE00F08C5150
:10025000E9268B51EF6E02EE00F08D51E926800EFB
:10026000EF6E1200B16BEA91766B776B786B796BFE
:10027000100E7A6F42EF05F00201F95100019D6FF7
:10028000210E9D5DD8A447EF01F0050EAF6F12005F
:1002900002011CBF50EF01F00001889152EF01F004
:1002A0000001888188B112007651775DD8A45EEF95
:1002B00001F0EAA11200836B70EF01F07651775DD7
:1002C000D8B46CEF01F0D8B06CEF01F0D880765163
:1002D0007755836F70EF01F0D880200E7755836FCC
:1002E000080E835DD8B47AEF01F0D8A07AEF01F060
:1002F000080E836F8351866F856B8FEF01F0775106
:100300008525846F00EEB2F08451E926EF50606FCE
:1003100002EE58F08551E9266051EF6E852B85512C
:10032000865DD8A47FEF01F0580E02011E6F020E09
:100330001F6F0001835102011D6F1CADA4EF01F07E
:10034000880E1C6FA6EF01F0C80E1C6F00017751DC
:100350008325876F1F0E875DD8B4B3EF01F0D8A057
:10036000B3EF01F0876B8751776F080E835DEA91D9
:10037000D8B4EA811200816F7629826F200E825DE7
:10038000D8A4C4EF01F0826B00EEB2F07651E926FA
:100390008151EF6E8251766F120048EC01F0080E29
:1003A00000017A5DD8B4D8EF01F0D8A0E2EF01F0F7
:1003B000020118BFE2EF01F0080E00018B6F030E7F
:1003C0001BEF01F0120000016F6BC20E706F010E87
:1003D000716F726B736B080E756F746B1200020194
:1003E000F9510001A66F060EA65DD8A495EF02F0A4
:1003F0000201FB510001A76F0201FA510001A86F31
:10040000AD6B010EA75DD8A418EF02F0120EAD6F10
:10041000780E9E6F020E9F6F2E0EA06F000EA16FC2
:10042000000E4009A26FAD518CEC00F078EF02F0A5
:10043000020EA75DD8A42FEF02F0430EAD6F780E29
:100440009E6F020E9F6F400EA06F000EA16F000EF8
:100450004009A26FAD518CEC00F078EF02F0030E72
:10046000A75DD8A476EF02F0A851D8A448EF02F017
:10047000040EAD6F780E9E6F020E9F6F840EA06FFC
:10048000000EA16F000E4009A26FAD518CEC00F080
:10049000010E0001A85DD8A45EEF02F0360EAD6F2C
:1004A000780E9E6F020E9F6F880EA06F000EA16FD8
:1004B000000E4009A26FAD518CEC00F0020E00015D
:1004C000A85DD8A478EF02F01E0EAD6F780E9E6F77
:1004D000020E9F6FBE0EA06F000EA16F000E4009AE
:1004E000A26FAD518CEC00F078EF02F0220EA75D08
:1004F0000001AD51D8B493EF02F0080EAC6F0201C9
:10050000FF51D8A489EF02F0FE510001AA6F8CEFD1
:1005100002F0FF0E0001AA6F030EAF6FAB6B02017A
:10052000049DACEF00F0FDEF00F0050EA65DD8A431
:10053000A6EF02F00201FA510001B06F010EAE6F9A
:10054000E4EC00F0060E0001AF6F1200090EA65D8C
:10055000D8A4E0EF02F0060EAF6FE4EC00F00F015C
:100560005489548554835487400E02010C6F080E41
:10057000096F300E0A6F020E0B6F800E086F0F01AD
:100580005589558555835587400E0201146F080E15
:10059000116F400E126F020E136F800E106F0F015D
:1005A0005689568556835687400E02011C6F080EE9
:1005B000196F500E1A6F020E1B6F800E186F12000B
:1005C0000A0EA65DD8A4EAEF02F0030EAF6F010E8B
:1005D000EDEF00F0A651D8A4F1EF02F0000EEDEF20
:1005E00000F01200D89063308E6FD8908E33D89080
:1005F0008E3363A408EF03F0D890020104310001A8
:10060000906FD89090330F0E90158F6F12EF03F00C
:10061000D890020100310001906FD89090330F0EF6
:1006200090158F6F8E51D8A409EF04F00D0E8F5DD9
:10063000D8A488EF03F0916B02EE20F09151E926E7
:10064000EF50606F02EEF8F09151E9266051EF6EC5
:10065000912B080E915DD8A41CEF03F0649801EC77
:1006600001F0300E0201F8150001906F9051D8A4EE
:100670003CEF03F0EFEF01F0200E905DD8A482EF85
:1006800003F00201F9510001926F230E925DD8A48C
:100690004EEF03F0060EAF6FE4EF00F0200E925D18
:1006A000D8A456EF03F0020EAF6F1200210E925D38
:1006B000D8A474EF03F0FF0EAA6F070EAD6F780E8B
:1006C0009E6F020E9F6F6F0EA06FA16BA26BAD515C
:1006D0008CEC00F0080E0001AC6F030EAF6FAB6B3B
:1006E0000201049DACEF00F0220E925DD8A481EFD0
:1006F00003F0060EAF6FE4EC00F00201FA510001C6
:10070000B16F1200400E905DD8A481EF04F012008A
:10071000090E8F5DD8A4AFEF03F0030EAF5DD8A430
:1007200094EF03F0ACEF00F0060EAF5DD8A4A5EF98
:1007300003F0AF6B010EAE5DD8A481EF04F0B051B1
:100740000F015C6F0001AE6B1200050EAF5DD8B4F7
:100750001200040EAF5DD8B43CEF01F01200020E9F
:100760008F5DD8A4C9EF03F0030EAF5DD8A4BBEF33
:1007700003F0ACEF00F0040EAF5DD8A4C2EF03F0BD
:100780003CEF01F0060EAF5DD8A481EF04F0AF6B33
:100790001200010E8F5DD8A481EF04F0050EAF5D4D
:1007A000D8A4D6EF03F0AF6B01EF01F0020EAF5DFE
:1007B000D8A4FDEF03F00201F9510001916F200E62
:1007C000915DD8A4FBEF03F0926B02EE20F0925102
:1007D000E926EF50606F00EE6FF09251E92660510C
:1007E000EF6E922B070E925DD8A4E5EF03F0060E94
:1007F000AF6FE4EC00F001EF01F0030EAF5DD8A4A1
:1008000007EF04F001EC01F00001AF6B120001EF03
:1008100001F063A430EF04F0D8908E35916FD8903A
:100820009137D8909137040E9127020E9125906F41
:1008300002EE00F09051E926EF50926F030E9125E1
:10084000906F02EE00F09051E926EF50936F9129DE
:10085000906F030E8E5DD8A481EF04F048EF01F095
:10086000D8908E35916FD8909137D8909137020EED
:100870009125906F02EE00F09051E926EF50926FB3
:10088000030E9125906F02EE00F09051E926EF5093
:10089000936F9129906F02EE00F09051E926EF508E
:1008A000946F9251956F9351966F030E8E5DD8A4FD
:1008B00081EF04F09551E16E9651E26E9451986F7C
:1008C000996B7CEF04F07829976F100E975DD8A490
:1008D0006BEF04F0976B9751795DD8B47BEF04F020
:1008E000E6509A6F00EED2F07851E9269A51EF6EF9
:1008F0009751786F7A07992B9951985DD8A463EF37
:1009000004F01200A1A4D0EF04F0A1940001896BBF
:1009100062A68EEF04F0F2EC02F062960001892BE1
:10092000040E895DD8A488EF04F062A0C2EF04F041
:100930000F015F6B626A0001B06B0F01546B556B66
:10094000566B576B586B596B5A6B160E536F62A6EA
:10095000ADEF04F06296A7EF04F00001AF6BAE6B51
:100960006498080E0201056F280E066F020E076FCD
:10097000046B080E016F200E026F020E036F8C0EC7
:10098000006F629062BA629A62B8629862ACCCEF11
:1009900004F0CDEC01F0629C62A2D0EF04F0629210
:1009A000120082EC04F048EF01F0646A140E616EEC
:1009B0006B0E606EA094E3EC01F0626A646A648678
:1009C00012007E6FB1517F6F7F51D8B4120076292B
:1009D000806F200E805DD8A4EFEF04F0806B0001E3
:1009E0008051775DD8A4F9EF04F0D1EC04F0EFEF7B
:1009F00004F07E51BBEF01F0000160517D6F7D512D
:100A0000E1EF04F0EF51F46FF051F56FF451F76F2F
:100A1000F551F86FF66B1DEF05F0F151F625E96E13
:100A2000F251EA6EEF50606FEC51656FED51666FF9
:100A3000EE5185EC00F00001F62BF651F75D606F8A
:100A4000F8516011D8A40DEF05F01200800ECD6EA4
:100A5000B1969E949D94F00EBD140409BD6E1200D3
:100A6000110ECA6EFA0ECB6E9E929D921200440E2B
:100A7000D56EF294F29A1200F296F290796A800E94
:100A80007A6E1200EA93E26B938E948A8B9E949E08
:100A90008B9C949CAA0E0101006FAA0E016FAA0EF6
:100AA000026F550E6B6F550E6C6FF29E7E6A7F6AF9
:100AB000C26AC16AC06A6D6A6B6A6C6A26EC05F02C
:100AC0003CEC05F030EC05F037EC05F0D5EC04F02B
:100AD000F28CF28E0001E26B8B9ED1EC04F00001EF
:100AE000B151E86FE851D8A479EF05F0EA937EEFB1
:100AF00005F08B8EEAB37EEF05F0EA83E251D8A4CD
:100B000094EF05F0F2969D94CD90CA94D59ECF6A4D
:100B1000CE6A9E94CC6A9E92440ED66EF294D58E86
:100B2000010EE26F6CEF05F0010EE25DD8A4B8EFA4
:100B300005F081AE6CEF05F0EA9DF2B4EA8DEAAD06
:100B4000B3EF05F0CD809D84CA84440ED66EF29436
:100B5000F286E36BE46B800EE56FE66BE76B020EEB
:100B6000E26F6CEF05F0440ED66EF2946CEF05F078
:100B7000020EE25DD8B4C2EF05F0030EE25DD8A428
:100B8000DEEF05F081AECAEF05F0440ED66EF294AA
:100B9000CCEF05F0CC6A9E92EB939EB2EB83EBA375
:100BA000D4EF05F0040EE26FEB95F2B4EB85EBA504
:100BB0006CEF05F0040EE26F6CEF05F0040EE25DE1
:100BC000D8A418EF06F0F2969D94CD90CA94D59EC5
:100BD0005A0EE35DD8B4F0EF05F0D8A014EF06F09C
:100BE000070EE615E86FE96BE851E911D8A415EF97
:100BF00006F0050EE26F100E0101515DD8B415EF3D
:100C000006F0D8B015EF06F0D89051350001E86F26
:100C100001EE6DF0E851E92601014F51EF6EE92A2E
:100C20005051EF6E15EF06F0E26B8B8C6CEF05F018
:100C3000050EE25DD8A450EF06F08B9CE26BEAA3B0
:100C400051EF06F001015D6B5E6B85515F6F865160
:100C5000606F8B51616F8C51626F8751636F8851E8
:100C6000646F7D51656F7E51666F8351676F8451EC
:100C7000686F7F51696F80516A6FF80E0001EC6FE9
:100C8000090EED6F000EEE6F6D0EEF6FF06B000E44
:100C9000F16F010EF26FF36B02EC05F06CEF05F0F3
:100CA000E26B6CEF05F07C91F2B07C817CA162EF8D
:100CB00006F081AE61EF06F0CF6ACE6A9E94CD80D9
:100CC0009D84F2909EA49DEF06F09D94CD90CF6AF6
:100CD000CE6A9E94020EE25DD8A473EF06F0030E76
:100CE000E26F9DEF06F0E62BD8B4E72B5A0EE35DDA
:100CF000D8B49DEF06F0D8B09DEF06F0010EBF5CB2
:100D0000D8A485EF06F0680EBE5CD8B48DEF06F06F
:100D1000D8A08DEF06F0E551E413D890E533E55106
:100D2000D8A49DEF06F001EE03F0E351E926E4516B
:100D3000EF6E800EE56FE46BE32B6B51F66E6C513A
:100D4000F76E6D51F86E6E51F56E6951E96E6A512C
:0C0D5000EA6E6851656F6451636F11001A
:020000040030CA
:0E0000000032211E0088C90003C003E0034047
:00000001FF
