:020000040000FA
:060000008AEF00F0000091
:0800080000016351646F6551B2
:10001000686FE950696FEA506A6FF6506B6FF7507E
:100020006C6FF8506D6FF5506E6F44EF06F0120173
:10003000000202000008D8040A00010001020001C9
:10004000090243000201008032090400000102029B
:100050000100052400100104240202052406000109
:1000600005240100010705820308000209040100BC
:10007000020A0000000705030208000007058302CA
:10008000080000000403090436034D006900630002
:1000900072006F0063006800690070002000540067
:1000A0006500630068006E006F006C006F00670001
:1000B00079002C00200049006E0063002E001E0312
:1000C0004A0041004C004C0049004200200053000F
:1000D00065007200690061006C002E0067BF84EF4C
:1000E00000F067BD7AEF00F06651EA6E6551E96E87
:1000F000EF5012006551F66E6651F76E67513F0B77
:10010000F86E0800F55012001200FB6E6651FA6E90
:100110006551F96EFC0ED316938E94848B90949057
:100120008B9294923AEF01F0A46F9F51E16EA0512F
:10013000E26EA451A66FA56BAEEF00F0A151A5250C
:10014000656F000E5E6EA2515E20666FA3515E2049
:10015000676F6EEC00F0E66E0001A52BA551A65D61
:10016000D8A49EEF00F01200040104BF12000001A9
:10017000AE51AB5DD8B4C2EF00F0D8B0C2EF00F022
:10018000AB51AE6FD880AE51AC559D6F9D51AD5DFA
:10019000D8B4D0EF00F0D8B0D0EF00F0AD519D6FE3
:1001A000780EAC250401066F000E5E6E040E5E2014
:1001B000076F00019D510401056F04ADE4EF00F0ED
:1001C000880E046FE6EF00F0C80E046F00019D5129
:1001D000AC27AC51AE5D1200080EAD6FAC6BAE6BD0
:1001E000AB6B0401049DB4EF00F0AA6FAA510401A7
:1001F000786F080E0001AD6FAC6B010EAE6F010E93
:10020000AB6F0401049DB4EF00F0840E04010013F1
:100210001200080E0401016F200E026F040E036F1E
:10022000030E0001B05DD8A41CEF01F08C0E9C6F92
:100230000401046B1EEF01F0C80E9C6F00019C517D
:100240000401006F12008B6FD8908B358E6FD890A1
:100250008E37D8908E378E298D6F04EE00F08D5139
:10026000E9268C51EF6E04EE00F08E51E926800EE7
:10027000EF6E1200B26BEF91766B776B786B796BE8
:10028000100E7A6F3FEF05F00401F95100019E6FE7
:10029000210E9E5DD8A44FEF01F0050EB06F120045
:1002A00004011CBF58EF01F0000189915AEF01F0E1
:1002B0000001898189B112007651775DD8A466EF7B
:1002C00001F0EFA11200846B78EF01F07651775DB9
:1002D000D8B474EF01F0D8B074EF01F0D880765143
:1002E0007755846F78EF01F0D880200E7755846FB2
:1002F000080E845DD8B482EF01F0D8A082EF01F03F
:10030000080E846F8451876F866B97EF01F07751E9
:100310008625856F00EEB3F08551E926EF50606FBA
:1003200004EE58F08651E9266051EF6E862B865117
:10033000875DD8A487EF01F0580E04011E6F040EEC
:100340001F6F0001845104011D6F1CADACEF01F063
:10035000880E1C6FAEEF01F0C80E1C6F00017751C4
:100360008425886F1F0E885DD8B4BBEF01F0D8A03C
:10037000BBEF01F0886B8851776F080E845DEF91B9
:10038000D8B4EF811200826F7629836F200E835DCF
:10039000D8A4CCEF01F0836B00EEB3F07651E926E0
:1003A0008251EF6E8351766F120050EC01F0080E0F
:1003B00000017A5DD8B4E0EF01F0D8A0EAEF01F0D7
:1003C000040118BFEAEF01F0080E00018C6F030E64
:1003D00023EF01F0120000016F6BC20E706F010E6F
:1003E000716F726B736B080E756F746B1200040182
:1003F000F9510001A76F060EA75DD8A49DEF02F08A
:100400000401FB510001A86F0401FA510001A96F1A
:10041000AE6B010EA85DD8A420EF02F0120EAE6FF5
:10042000780E9F6F040EA06F2E0EA16F000EA26FAC
:10043000000E4009A36FAE5194EC00F080EF02F083
:10044000020EA85DD8A437EF02F0430EAE6F780E0F
:100450009F6F040EA06F400EA16F000EA26F000EE2
:100460004009A36FAE5194EC00F080EF02F0030E50
:10047000A85DD8A47EEF02F0A951D8A450EF02F0F5
:10048000040EAE6F780E9F6F040EA06F840EA16FE6
:10049000000EA26F000E4009A36FAE5194EC00F065
:1004A000010E0001A95DD8A466EF02F0360EAE6F12
:1004B000780E9F6F040EA06F880EA16F000EA26FC2
:1004C000000E4009A36FAE5194EC00F0020E000143
:1004D000A95DD8A480EF02F01E0EAE6F780E9F6F5C
:1004E000040EA06FBE0EA16F000EA26F000E400999
:1004F000A36FAE5194EC00F080EF02F0220EA85DE5
:100500000001AE51D8B49BEF02F0080EAD6F0401AC
:10051000FF51D8A491EF02F0FE510001AB6F94EFB0
:1005200002F0FF0E0001AB6F030EB06FAC6B040165
:10053000049DB4EF00F005EF01F0050EA75DD8A40F
:10054000AEEF02F00401FA510001B16F010EAF6F7E
:10055000ECEC00F0060E0001B06F1200090EA75D72
:10056000D8A4E3EF02F0060EB06FECEC00F0718857
:10057000718471827186400E04010C6F080E096F40
:10058000300E0A6F040E0B6F800E086F7288728433
:1005900072827286400E146F080E116F400E126F39
:1005A000040E136F800E106F7388738473827386CA
:1005B000400E1C6F080E196F500E1A6F040E1B6F41
:1005C000800E186F12000A0EA75DD8A4EDEF02F09E
:1005D000030EB06F010EF5EF00F0A751D8A4F4EFB1
:1005E00002F0000EF5EF00F01200D8906C308F6F23
:1005F000D8908F33D8908F336CA40BEF03F0D89042
:10060000040104310001916FD89091330F0E9115C0
:10061000906F15EF03F0D890040100310001916F45
:10062000D89091330F0E9115906F8F51D8A40AEF87
:1006300004F00D0E905DD8A48BEF03F0926B04EEE6
:1006400020F09251E926EF50606F04EEF8F09251DD
:10065000E9266051EF6E922B080E925DD8A41FEF31
:1006600003F06D9809EC01F0300E0401F81500015B
:10067000916F9151D8A43FEF03F0F7EF01F0200EF6
:10068000915DD8A485EF03F00401F9510001936F47
:10069000230E935DD8A451EF03F0060EB06FECEF7C
:1006A00000F0200E935DD8A459EF03F0020EB06F56
:1006B0001200210E935DD8A477EF03F0FF0EAB6F0D
:1006C000070EAE6F780E9F6F040EA06F6F0EA16FB6
:1006D000A26BA36BAE5194EC00F0080E0001AD6F5D
:1006E000030EB06FAC6B0401049DB4EF00F0220E5A
:1006F000935DD8A484EF03F0060EB06FECEC00F02D
:100700000401FA510001B26F1200400E915DD8A4AD
:1007100082EF04F01200090E905DD8A4B0EF03F050
:10072000030EB05DD8A497EF03F0B4EF00F0060E0F
:10073000B05DD8A4A6EF03F0B06B010EAF5DD8A4F6
:1007400082EF04F0B1516E6EAF6B1200050EB05D1A
:10075000D8B41200040EB05DD8B444EF01F012001A
:10076000020E905DD8A4CAEF03F0030EB05DD8A4CA
:10077000BCEF03F0B4EF00F0040EB05DD8A4C3EFFB
:1007800003F044EF01F0060EB05DD8A482EF04F050
:10079000B06B1200010E905DD8A482EF04F0050E3C
:1007A000B05DD8A4D7EF03F0B06B09EF01F0020EF3
:1007B000B05DD8A4FEEF03F00401F9510001926F7F
:1007C000200E925DD8A4FCEF03F0936B04EE20F0B2
:1007D0009351E926EF50606F00EE6FF09351E926D8
:1007E0006051EF6E932B070E935DD8A4E6EF03F0F4
:1007F000060EB06FECEC00F009EF01F0030EB05DF7
:10080000D8A408EF04F009EC01F00001B06B12006D
:1008100009EF01F06CA431EF04F0D8908F35926F9E
:10082000D8909237D8909237040E9227020E9225D4
:10083000916F04EE00F09151E926EF50936F030E93
:100840009225916F04EE00F09151E926EF50946FDC
:100850009229916F030E8F5DD8A482EF04F050EFC0
:1008600001F0D8908F35926FD8909237D890923708
:10087000020E9225916F04EE00F09151E926EF509F
:10088000936F030E9225916F04EE00F09151E926CB
:10089000EF50946F9229916F04EE00F09151E92688
:1008A000EF50956F9351966F9451976F030E8F5D34
:1008B000D8A482EF04F09651E16E9751E26E955103
:1008C000996F9A6B7DEF04F07829986F100E985D00
:1008D000D8A46CEF04F0986B9851795DD8B47CEF94
:1008E00004F0E6509B6F00EED3F07851E9269B515F
:1008F000EF6E9851786F7A079A2B9A51995DD8A428
:1009000064EF04F01200A1AAD6EF04F0A19A00014E
:100910008A6B68A68FEF04F0F5EC02F06896000190
:100920008A2B040E8A5DD8A489EF04F068A0C8EF72
:1009300004F06A6A686AB16B716A726A736A746A8F
:10094000756A766A776A786A796A100E7A6E7B6A57
:100950007C6A7D6A7E6A7F6A160E706E68A6B4EF46
:1009600004F06896AEEF04F0B06BAF6B6D98080EB4
:100970000401056F280E066F040E076F046B080E46
:10098000016F200E026F040E036F8C0E006F6890D3
:1009900068BA689A68B8689868ACD2EF04F0D5EC89
:1009A00001F0689C68A2D6EF04F06892120083EC14
:1009B00004F050EF01F06D6A140E6F6E6B0E696EED
:1009C000A09AEBEC01F0686A6D6A6D8612007F6F89
:1009D000B251806F8051D8B412007629816F200EF9
:1009E000815DD8A4F5EF04F0816B00018151775D42
:1009F000D8A4FFEF04F0D7EC04F0F5EF04F07F513A
:100A0000C3EF01F0000160517E6F7E51E7EF04F00B
:100A1000F451F96FF551FA6FF951FC6FFA51FD6F0E
:100A2000FB6B23EF05F0F651FB25E96EF751EA6EFB
:100A3000EF50606FF151656FF251666FF35185ECC5
:100A400000F00001FB2BFB51FC5D606FFD5160115C
:100A5000D8A413EF05F01200CD6AB1969E949D9430
:100A6000040EBD6E1200110ECA6EFA0ECB6E9E926F
:100A70009D921200440ED56EF294F29A1200EF93FA
:100A8000E36BAA0E0101006FAA0E016FAA0E026F9E
:100A9000550E6B6F550E6C6FF29EC26A0F0EC16ED3
:100AA000C06A070EB46E2CEC05F033EC05F03AEC9E
:100AB00005F0DBEC04F0F28CF28E0001E36B8B901E
:100AC000D7EC04F00001B251E96FE951D8A46CEF02
:100AD00005F0EF9371EF05F08B80EFB371EF05F048
:100AE000EF83E351D8A484EF05F09D94CD90CA9490
:100AF000D59E9E94CC6A9E92440ED66EF294D58E6C
:100B0000010EE36F5FEF05F0010EE35DD8A4AAEFDD
:100B100005F082A45FEF05F0EF9DF2B4EF8DEFAD2D
:100B2000A5EF05F0040EBD6ECD809E949D84CA8411
:100B3000440ED66EF294E46BE56B800EE66FE76BC5
:100B4000E86B020EE36F5FEF05F0440ED66EF29491
:100B50005FEF05F0020EE35DD8B4B4EF05F0030ECD
:100B6000E35DD8A4D0EF05F082A4BCEF05F0440EFD
:100B7000D66EF294BEEF05F0CC6A9E92F0939EB2D0
:100B8000F083F0A3C6EF05F0040EE36FF095F2B426
:100B9000F085F0A55FEF05F0040EE36F5FEF05F061
:100BA000040EE35DD8A409EF06F09D94CD90CA949D
:100BB000D59E5A0EE45DD8B4E1EF05F0D8A005EF5C
:100BC00006F0070EE715E96FEA6BE951EA11D8A4C0
:100BD00006EF06F0050EE36F100E0101515DD8B46B
:100BE00006EF06F0D8B006EF06F0D89051350001B8
:100BF000E96F01EE6DF0E951E92601014F51EF6E09
:100C0000E92A5051EF6E06EF06F0E36B8B825FEF3F
:100C100005F0050EE35DD8A441EF06F08B92E36B7F
:100C2000EFA342EF06F001015D6B5E6B85515F6FD4
:100C30008651606F8B51616F8C51626F8751636F0A
:100C40008851646F7D51656F7E51666F8351676F08
:100C50008451686F7F51696F80516A6F040E000183
:100C6000F16F0A0EF26F000EF36F6D0EF46FF56BFD
:100C7000000EF66F010EF76FF86B08EC05F05FEFF2
:100C800005F0E36B5FEF05F09EA499EF06F0020E0E
:100C9000E35DD8A453EF06F0030EE36F9E94050EB8
:100CA000BD6E99EF06F0050EBD5CD8A461EF06F0AD
:100CB000BE50EB6FBF50EC6F9E94040EBD6E99EF6B
:100CC00006F0BE50ED6FBF50EE6F9E94050EBD6EE8
:100CD000E72BD8B4E82B5A0EE45DD8B499EF06F0B0
:100CE000D8B099EF06F0D880ED51EB557C6FEE51FE
:100CF000EC557D6F010E7D5DD8A481EF06F0680E86
:100D00007C5DD8B489EF06F0D8A089EF06F0E651F3
:100D1000E513D890E633E651D8A499EF06F001EE3A
:100D200003F0E451E926E551EF6E800EE66FE56BC6
:100D3000E42B6B51F66E6C51F76E6D51F86E6E517F
:100D4000F56E6951E96E6A51EA6E6851656F6451DA
:040D5000636F1100BC
:020000040030CA
:0E000000240E391E0087A1000FC00FE00F4034
:00000001FF
