:020000040000FA
:060000008AEF00F0000091
:0800080000016351646F6551B2
:10001000686FE950696FEA506A6FF6506B6FF7507E
:100020006C6FF8506D6FF5506E6F46EF06F0120171
:10003000000202000008D8040A00010001020001C9
:10004000090243000201008032090400000102029B
:100050000100052400100104240202052406000109
:1000600005240100010705820308000209040100BC
:10007000020A0000000705030208000007058302CA
:10008000080000000403090436034D006900630002
:1000900072006F0063006800690070002000540067
:1000A0006500630068006E006F006C006F00670001
:1000B00079002C00200049006E0063002E001E0312
:1000C0004A0041004C004C0049004200200053000F
:1000D00065007200690061006C002E0067BF84EF4C
:1000E00000F067BD7AEF00F06651EA6E6551E96E87
:1000F000EF5012006551F66E6651F76E67513F0B77
:10010000F86E0800F55012001200FB6E6651FA6E90
:100110006551F96E32EF01F0A46F9F51E16EA0516D
:10012000E26EA451A66FA56BA6EF00F0A151A52524
:10013000656F000E5E6EA2515E20666FA3515E2059
:10014000676F6EEC00F0E66E0001A52BA551A65D71
:10015000D8A496EF00F01200020104BF12000001C3
:10016000AE51AB5DD8B4BAEF00F0D8B0BAEF00F042
:10017000AB51AE6FD880AE51AC559D6F9D51AD5D0A
:10018000D8B4C8EF00F0D8B0C8EF00F0AD519D6F03
:10019000780EAC250201066F000E5E6E020E5E2028
:1001A000076F00019D510201056F04ADDCEF00F007
:1001B000880E046FDEEF00F0C80E046F00019D5141
:1001C000AC27AC51AE5D1200080EAD6FAC6BAE6BE0
:1001D000AB6B0201049DACEF00F0AA6FAA510201C3
:1001E000786F080E0001AD6FAC6B010EAE6F010EA3
:1001F000AB6F0201049DACEF00F0840E020100130E
:100200001200080E0201016F200E026F020E036F32
:10021000030E0001B05DD8A414EF01F08C0E9C6FAA
:100220000201046B16EF01F0C80E9C6F00019C5197
:100230000201006F12008B6FD8908B358E6FD890B3
:100240008E37D8908E378E298D6F02EE00F08D514B
:10025000E9268C51EF6E02EE00F08E51E926800EF9
:10026000EF6E1200B26BEF91766B776B786B796BF8
:10027000100E7A6F39EF05F00201F95100019E6FFF
:10028000210E9E5DD8A447EF01F0050EB06F12005D
:1002900002011CBF50EF01F00001899152EF01F003
:1002A0000001898189B112007651775DD8A45EEF93
:1002B00001F0EFA11200846B70EF01F07651775DD1
:1002C000D8B46CEF01F0D8B06CEF01F0D880765163
:1002D0007755846F70EF01F0D880200E7755846FCA
:1002E000080E845DD8B47AEF01F0D8A07AEF01F05F
:1002F000080E846F8451876F866B8FEF01F0775102
:100300008625856F00EEB3F08551E926EF50606FCA
:1003100002EE58F08651E9266051EF6E862B865129
:10032000875DD8A47FEF01F0580E02011E6F020E08
:100330001F6F0001845102011D6F1CADA4EF01F07D
:10034000880E1C6FA6EF01F0C80E1C6F00017751DC
:100350008425886F1F0E885DD8B4B3EF01F0D8A054
:10036000B3EF01F0886B8851776F080E845DEF91D1
:10037000D8B4EF811200826F7629836F200E835DDF
:10038000D8A4C4EF01F0836B00EEB3F07651E926F8
:100390008251EF6E8351766F120048EC01F0080E27
:1003A00000017A5DD8B4D8EF01F0D8A0E2EF01F0F7
:1003B000020118BFE2EF01F0080E00018C6F030E7E
:1003C0001BEF01F0120000016F6BC20E706F010E87
:1003D000716F726B736B080E756F746B1200020194
:1003E000F9510001A76F060EA75DD8A495EF02F0A2
:1003F0000201FB510001A86F0201FA510001A96F2F
:10040000AE6B010EA85DD8A418EF02F0120EAE6F0D
:10041000780E9F6F020EA06F2E0EA16F000EA26FBE
:10042000000E4009A36FAE518CEC00F078EF02F0A3
:10043000020EA85DD8A42FEF02F0430EAE6F780E27
:100440009F6F020EA06F400EA16F000EA26F000EF4
:100450004009A36FAE518CEC00F078EF02F0030E70
:10046000A85DD8A476EF02F0A951D8A448EF02F015
:10047000040EAE6F780E9F6F020EA06F840EA16FF8
:10048000000EA26F000E4009A36FAE518CEC00F07D
:10049000010E0001A95DD8A45EEF02F0360EAE6F2A
:1004A000780E9F6F020EA06F880EA16F000EA26FD4
:1004B000000E4009A36FAE518CEC00F0020E00015B
:1004C000A95DD8A478EF02F01E0EAE6F780E9F6F74
:1004D000020EA06FBE0EA16F000EA26F000E4009AB
:1004E000A36FAE518CEC00F078EF02F0220EA85D05
:1004F0000001AE51D8B493EF02F0080EAD6F0201C7
:10050000FF51D8A489EF02F0FE510001AB6F8CEFD0
:1005100002F0FF0E0001AB6F030EB06FAC6B020177
:10052000049DACEF00F0FDEF00F0050EA75DD8A430
:10053000A6EF02F00201FA510001B16F010EAF6F98
:10054000E4EC00F0060E0001B06F1200090EA75D8A
:10055000D8A4E0EF02F0060EB06FE4EC00F00F015B
:100560005489548554835487400E02010C6F080E41
:10057000096F300E0A6F020E0B6F800E086F0F01AD
:100580005589558555835587400E0201146F080E15
:10059000116F400E126F020E136F800E106F0F015D
:1005A0005689568556835687400E02011C6F080EE9
:1005B000196F500E1A6F020E1B6F800E186F12000B
:1005C0000A0EA75DD8A4EAEF02F0030EB06F010E89
:1005D000EDEF00F0A751D8A4F1EF02F0000EEDEF1F
:1005E00000F01200D89063308F6FD8908F33D8907E
:1005F0008F3363A408EF03F0D890020104310001A7
:10060000916FD89091330F0E9115906F12EF03F008
:10061000D890020100310001916FD89091330F0EF4
:100620009115906F8F51D8A409EF04F00D0E905DD5
:10063000D8A488EF03F0926B02EE20F09251E926E5
:10064000EF50606F02EEF8F09251E9266051EF6EC4
:10065000922B080E925DD8A41CEF03F0649801EC75
:1006600001F0300E0201F8150001916F9151D8A4EC
:100670003CEF03F0EFEF01F0200E915DD8A482EF84
:1006800003F00201F9510001936F230E935DD8A48A
:100690004EEF03F0060EB06FE4EF00F0200E935D16
:1006A000D8A456EF03F0020EB06F1200210E935D36
:1006B000D8A474EF03F0FF0EAB6F070EAE6F780E89
:1006C0009F6F020EA06F6F0EA16FA26BA36BAE5156
:1006D0008CEC00F0080E0001AD6F030EB06FAC6B38
:1006E0000201049DACEF00F0220E935DD8A481EFCF
:1006F00003F0060EB06FE4EC00F00201FA510001C5
:10070000B26F1200400E915DD8A481EF04F0120088
:10071000090E905DD8A4AFEF03F0030EB05DD8A42E
:1007200094EF03F0ACEF00F0060EB05DD8A4A5EF97
:1007300003F0B06B010EAF5DD8A481EF04F0B151AE
:100740000F015C6F0001AF6B1200050EB05DD8B4F5
:100750001200040EB05DD8B43CEF01F01200020E9E
:10076000905DD8A4C9EF03F0030EB05DD8A4BBEF31
:1007700003F0ACEF00F0040EB05DD8A4C2EF03F0BC
:100780003CEF01F0060EB05DD8A481EF04F0B06B31
:100790001200010E905DD8A481EF04F0050EB05D4B
:1007A000D8A4D6EF03F0B06B01EF01F0020EB05DFC
:1007B000D8A4FDEF03F00201F9510001926F200E61
:1007C000925DD8A4FBEF03F0936B02EE20F09351FF
:1007D000E926EF50606F00EE6FF09351E92660510B
:1007E000EF6E932B070E935DD8A4E5EF03F0060E92
:1007F000B06FE4EC00F001EF01F0030EB05DD8A49F
:1008000007EF04F001EC01F00001B06B120001EF02
:1008100001F063A430EF04F0D8908F35926FD89038
:100820009237D8909237040E9227020E9225916F3C
:1008300002EE00F09151E926EF50936F030E9225DE
:10084000916F02EE00F09151E926EF50946F9229DA
:10085000916F030E8F5DD8A481EF04F048EF01F093
:10086000D8908F35926FD8909237D8909237020EE9
:100870009225916F02EE00F09151E926EF50936FAF
:10088000030E9225916F02EE00F09151E926EF5090
:10089000946F9229916F02EE00F09151E926EF508A
:1008A000956F9351966F9451976F030E8F5DD8A4F7
:1008B00081EF04F09651E16E9751E26E9551996F78
:1008C0009A6B7CEF04F07829986F100E985DD8A48D
:1008D0006BEF04F0986B9851795DD8B47BEF04F01E
:1008E000E6509B6F00EED3F07851E9269B51EF6EF6
:1008F0009851786F7A079A2B9A51995DD8A463EF33
:1009000004F01200A1A4D0EF04F0A19400018A6BBE
:1009100062A68EEF04F0F2EC02F0629600018A2BE0
:10092000040E8A5DD8A488EF04F062A0C2EF04F040
:100930000F015F6B626A0001B16B0F01546B556B65
:10094000566B576B586B596B5A6B160E536F62A6EA
:10095000ADEF04F06296A7EF04F00001B06BAF6B4F
:100960006498080E0201056F280E066F020E076FCD
:10097000046B080E016F200E026F020E036F8C0EC7
:10098000006F629062BA629A62B8629862ACCCEF11
:1009900004F0CDEC01F0629C62A2D0EF04F0629210
:1009A000120082EC04F048EF01F0646A140E616EEC
:1009B0006B0E606EA094E3EC01F0626A646A648678
:1009C00012007F6FB251806F8051D8B41200762927
:1009D000816F200E815DD8A4EFEF04F0816B0001E0
:1009E0008151775DD8A4F9EF04F0D1EC04F0EFEF7A
:1009F00004F07F51BBEF01F0000160517E6F7E512A
:100A0000E1EF04F0F451F96FF551FA6FF951FC6F11
:100A1000FA51FD6FFB6B1DEF05F0F651FB25E96EFA
:100A2000F751EA6EEF50606FF151656FF251666FEA
:100A3000F35185EC00F00001FB2BFB51FC5D606F76
:100A4000FD516011D8A40DEF05F01200CD6AB196EA
:100A50009E949D94040EBD6E1200110ECA6EFA0E85
:100A6000CB6E9E929D921200440ED56EF294F29A35
:100A70001200EF93E36B938E948A8B9E949E8B9CD3
:100A8000949CAA0E0101006FAA0E016FAA0E026FBC
:100A9000550E6B6F550E6C6FF29E7E6A7F6AC26A4E
:100AA000C16AC06A6D6A6B6A6C6A26EC05F02DEC4F
:100AB00005F034EC05F0D5EC04F0F28CF28E000178
:100AC000E36B8B9ED1EC04F00001B251E96FE95168
:100AD000D8A46EEF05F0EF9373EF05F08B8EEFB3B4
:100AE00073EF05F0EF83E351D8A486EF05F09D94F2
:100AF000CD90CA94D59E9E94CC6A9E92440ED66E9A
:100B0000F294D58E010EE36F61EF05F0010EE35D07
:100B1000D8A4ACEF05F082AA61EF05F0EF9DF2B426
:100B2000EF8DEFADA7EF05F0040EBD6ECD809E9466
:100B30009D84CA84440ED66EF294E46BE56B800EFD
:100B4000E66FE76BE86B020EE36F61EF05F0440EB2
:100B5000D66EF29461EF05F0020EE35DD8B4B6EF05
:100B600005F0030EE35DD8A4D2EF05F082AABEEF34
:100B700005F0440ED66EF294C0EF05F0CC6A9E925A
:100B8000F0939EB2F083F0A3C8EF05F0040EE36F7C
:100B9000F095F2B4F085F0A561EF05F0040EE36F77
:100BA00061EF05F0040EE35DD8A40BEF06F09D9411
:100BB000CD90CA94D59E5A0EE45DD8B4E3EF05F00B
:100BC000D8A007EF06F0070EE715E96FEA6BE951C9
:100BD000EA11D8A408EF06F0050EE36F100E01012C
:100BE000515DD8B408EF06F0D8B008EF06F0D89001
:100BF00051350001E96F01EE6DF0E951E92601017F
:100C00004F51EF6EE92A5051EF6E08EF06F0E36B9B
:100C10008B8C61EF05F0050EE35DD8A443EF06F081
:100C20008B9CE36BEFA344EF06F001015D6B5E6B01
:100C300085515F6F8651606F8B51616F8C51626F10
:100C40008751636F8851646F7D51656F7E51666F08
:100C50008351676F8451686F7F51696F80516A6FEC
:100C6000F80E0001F16F090EF26F000EF36F6D0EBA
:100C7000F46FF56B000EF66F010EF76FF86B02EC78
:100C800005F061EF05F0E36B61EF05F09EA49BEFCB
:100C900006F0020EE35DD8A455EF06F0030EE36FF5
:100CA0009E94050EBD6E9BEF06F0050EBD5CD8A4AC
:100CB00063EF06F0BE50EB6FBF50EC6F9E94040ED6
:100CC000BD6E9BEF06F0BE50ED6FBF50EE6F9E9471
:100CD000050EBD6EE72BD8B4E82B5A0EE45DD8B4F0
:100CE0009BEF06F0D8B09BEF06F0D880ED51EB55A6
:100CF0007C6FEE51EC557D6F010E7D5DD8A483EFC6
:100D000006F0680E7C5DD8B48BEF06F0D8A08BEFB0
:100D100006F0E651E513D890E633E651D8A49BEFF0
:100D200006F001EE03F0E451E926E551EF6E800E86
:100D3000E66FE56BE42B6B51F66E6C51F76E6D51FF
:100D4000F86E6E51F56E6951E96E6A51EA6E68513E
:080D5000656F6451636F11002F
:020000040030CA
:0E0000000032211E0088C90003C003E0034047
:00000001FF
